{
  "_format": "hh-sol-artifact-1",
  "contractName": "YourCollectible",
  "sourceName": "contracts/YourCollectible.sol",
  "abi": [
    {
      "inputs": [],
      "stateMutability": "nonpayable",
      "type": "constructor"
    },
    {
      "anonymous": false,
      "inputs": [
        {
          "indexed": true,
          "internalType": "address",
          "name": "owner",
          "type": "address"
        },
        {
          "indexed": true,
          "internalType": "address",
          "name": "approved",
          "type": "address"
        },
        {
          "indexed": true,
          "internalType": "uint256",
          "name": "tokenId",
          "type": "uint256"
        }
      ],
      "name": "Approval",
      "type": "event"
    },
    {
      "anonymous": false,
      "inputs": [
        {
          "indexed": true,
          "internalType": "address",
          "name": "owner",
          "type": "address"
        },
        {
          "indexed": true,
          "internalType": "address",
          "name": "operator",
          "type": "address"
        },
        {
          "indexed": false,
          "internalType": "bool",
          "name": "approved",
          "type": "bool"
        }
      ],
      "name": "ApprovalForAll",
      "type": "event"
    },
    {
      "anonymous": false,
      "inputs": [
        {
          "indexed": false,
          "internalType": "uint256",
          "name": "_fromTokenId",
          "type": "uint256"
        },
        {
          "indexed": false,
          "internalType": "uint256",
          "name": "_toTokenId",
          "type": "uint256"
        }
      ],
      "name": "BatchMetadataUpdate",
      "type": "event"
    },
    {
      "anonymous": false,
      "inputs": [
        {
          "indexed": false,
          "internalType": "uint256",
          "name": "_tokenId",
          "type": "uint256"
        }
      ],
      "name": "MetadataUpdate",
      "type": "event"
    },
    {
      "anonymous": false,
      "inputs": [
        {
          "indexed": true,
          "internalType": "address",
          "name": "previousOwner",
          "type": "address"
        },
        {
          "indexed": true,
          "internalType": "address",
          "name": "newOwner",
          "type": "address"
        }
      ],
      "name": "OwnershipTransferred",
      "type": "event"
    },
    {
      "anonymous": false,
      "inputs": [
        {
          "indexed": true,
          "internalType": "address",
          "name": "from",
          "type": "address"
        },
        {
          "indexed": true,
          "internalType": "address",
          "name": "to",
          "type": "address"
        },
        {
          "indexed": true,
          "internalType": "uint256",
          "name": "tokenId",
          "type": "uint256"
        }
      ],
      "name": "Transfer",
      "type": "event"
    },
    {
      "inputs": [
        {
          "internalType": "address",
          "name": "to",
          "type": "address"
        },
        {
          "internalType": "uint256",
          "name": "tokenId",
          "type": "uint256"
        }
      ],
      "name": "approve",
      "outputs": [],
      "stateMutability": "nonpayable",
      "type": "function"
    },
    {
      "inputs": [
        {
          "internalType": "address",
          "name": "owner",
          "type": "address"
        }
      ],
      "name": "balanceOf",
      "outputs": [
        {
          "internalType": "uint256",
          "name": "",
          "type": "uint256"
        }
      ],
      "stateMutability": "view",
      "type": "function"
    },
    {
      "inputs": [
        {
          "internalType": "uint256",
          "name": "tokenId",
          "type": "uint256"
        }
      ],
      "name": "getApproved",
      "outputs": [
        {
          "internalType": "address",
          "name": "",
          "type": "address"
        }
      ],
      "stateMutability": "view",
      "type": "function"
    },
    {
      "inputs": [
        {
          "internalType": "address",
          "name": "owner",
          "type": "address"
        },
        {
          "internalType": "address",
          "name": "operator",
          "type": "address"
        }
      ],
      "name": "isApprovedForAll",
      "outputs": [
        {
          "internalType": "bool",
          "name": "",
          "type": "bool"
        }
      ],
      "stateMutability": "view",
      "type": "function"
    },
    {
      "inputs": [
        {
          "internalType": "address",
          "name": "to",
          "type": "address"
        },
        {
          "internalType": "string",
          "name": "uri",
          "type": "string"
        }
      ],
      "name": "mintItem",
      "outputs": [
        {
          "internalType": "uint256",
          "name": "",
          "type": "uint256"
        }
      ],
      "stateMutability": "nonpayable",
      "type": "function"
    },
    {
      "inputs": [],
      "name": "name",
      "outputs": [
        {
          "internalType": "string",
          "name": "",
          "type": "string"
        }
      ],
      "stateMutability": "view",
      "type": "function"
    },
    {
      "inputs": [],
      "name": "owner",
      "outputs": [
        {
          "internalType": "address",
          "name": "",
          "type": "address"
        }
      ],
      "stateMutability": "view",
      "type": "function"
    },
    {
      "inputs": [
        {
          "internalType": "uint256",
          "name": "tokenId",
          "type": "uint256"
        }
      ],
      "name": "ownerOf",
      "outputs": [
        {
          "internalType": "address",
          "name": "",
          "type": "address"
        }
      ],
      "stateMutability": "view",
      "type": "function"
    },
    {
      "inputs": [],
      "name": "renounceOwnership",
      "outputs": [],
      "stateMutability": "nonpayable",
      "type": "function"
    },
    {
      "inputs": [
        {
          "internalType": "address",
          "name": "from",
          "type": "address"
        },
        {
          "internalType": "address",
          "name": "to",
          "type": "address"
        },
        {
          "internalType": "uint256",
          "name": "tokenId",
          "type": "uint256"
        }
      ],
      "name": "safeTransferFrom",
      "outputs": [],
      "stateMutability": "nonpayable",
      "type": "function"
    },
    {
      "inputs": [
        {
          "internalType": "address",
          "name": "from",
          "type": "address"
        },
        {
          "internalType": "address",
          "name": "to",
          "type": "address"
        },
        {
          "internalType": "uint256",
          "name": "tokenId",
          "type": "uint256"
        },
        {
          "internalType": "bytes",
          "name": "data",
          "type": "bytes"
        }
      ],
      "name": "safeTransferFrom",
      "outputs": [],
      "stateMutability": "nonpayable",
      "type": "function"
    },
    {
      "inputs": [
        {
          "internalType": "address",
          "name": "operator",
          "type": "address"
        },
        {
          "internalType": "bool",
          "name": "approved",
          "type": "bool"
        }
      ],
      "name": "setApprovalForAll",
      "outputs": [],
      "stateMutability": "nonpayable",
      "type": "function"
    },
    {
      "inputs": [
        {
          "internalType": "bytes4",
          "name": "interfaceId",
          "type": "bytes4"
        }
      ],
      "name": "supportsInterface",
      "outputs": [
        {
          "internalType": "bool",
          "name": "",
          "type": "bool"
        }
      ],
      "stateMutability": "view",
      "type": "function"
    },
    {
      "inputs": [],
      "name": "symbol",
      "outputs": [
        {
          "internalType": "string",
          "name": "",
          "type": "string"
        }
      ],
      "stateMutability": "view",
      "type": "function"
    },
    {
      "inputs": [
        {
          "internalType": "uint256",
          "name": "index",
          "type": "uint256"
        }
      ],
      "name": "tokenByIndex",
      "outputs": [
        {
          "internalType": "uint256",
          "name": "",
          "type": "uint256"
        }
      ],
      "stateMutability": "view",
      "type": "function"
    },
    {
      "inputs": [],
      "name": "tokenIdCounter",
      "outputs": [
        {
          "internalType": "uint256",
          "name": "_value",
          "type": "uint256"
        }
      ],
      "stateMutability": "view",
      "type": "function"
    },
    {
      "inputs": [
        {
          "internalType": "address",
          "name": "owner",
          "type": "address"
        },
        {
          "internalType": "uint256",
          "name": "index",
          "type": "uint256"
        }
      ],
      "name": "tokenOfOwnerByIndex",
      "outputs": [
        {
          "internalType": "uint256",
          "name": "",
          "type": "uint256"
        }
      ],
      "stateMutability": "view",
      "type": "function"
    },
    {
      "inputs": [
        {
          "internalType": "uint256",
          "name": "tokenId",
          "type": "uint256"
        }
      ],
      "name": "tokenURI",
      "outputs": [
        {
          "internalType": "string",
          "name": "",
          "type": "string"
        }
      ],
      "stateMutability": "view",
      "type": "function"
    },
    {
      "inputs": [],
      "name": "totalSupply",
      "outputs": [
        {
          "internalType": "uint256",
          "name": "",
          "type": "uint256"
        }
      ],
      "stateMutability": "view",
      "type": "function"
    },
    {
      "inputs": [
        {
          "internalType": "address",
          "name": "from",
          "type": "address"
        },
        {
          "internalType": "address",
          "name": "to",
          "type": "address"
        },
        {
          "internalType": "uint256",
          "name": "tokenId",
          "type": "uint256"
        }
      ],
      "name": "transferFrom",
      "outputs": [],
      "stateMutability": "nonpayable",
      "type": "function"
    },
    {
      "inputs": [
        {
          "internalType": "address",
          "name": "newOwner",
          "type": "address"
        }
      ],
      "name": "transferOwnership",
      "outputs": [],
      "stateMutability": "nonpayable",
      "type": "function"
    }
  ],
  "bytecode": "0x608060405234801561001057600080fd5b506040518060400160405280600f81526020017f596f7572436f6c6c65637469626c6500000000000000000000000000000000008152506040518060400160405280600381526020017f5943420000000000000000000000000000000000000000000000000000000000815250816000908161008c91906103de565b50806001908161009c91906103de565b5050506100bb6100b06100c060201b60201c565b6100c860201b60201c565b6104b0565b600033905090565b6000600b60009054906101000a900473ffffffffffffffffffffffffffffffffffffffff16905081600b60006101000a81548173ffffffffffffffffffffffffffffffffffffffff021916908373ffffffffffffffffffffffffffffffffffffffff1602179055508173ffffffffffffffffffffffffffffffffffffffff168173ffffffffffffffffffffffffffffffffffffffff167f8be0079c531659141344cd1fd0a4f28419497f9722a3daafe3b4186f6b6457e060405160405180910390a35050565b600081519050919050565b7f4e487b7100000000000000000000000000000000000000000000000000000000600052604160045260246000fd5b7f4e487b7100000000000000000000000000000000000000000000000000000000600052602260045260246000fd5b6000600282049050600182168061020f57607f821691505b602082108103610222576102216101c8565b5b50919050565b60008190508160005260206000209050919050565b60006020601f8301049050919050565b600082821b905092915050565b60006008830261028a7fffffffffffffffffffffffffffffffffffffffffffffffffffffffffffffffff8261024d565b610294868361024d565b95508019841693508086168417925050509392505050565b6000819050919050565b6000819050919050565b60006102db6102d66102d1846102ac565b6102b6565b6102ac565b9050919050565b6000819050919050565b6102f5836102c0565b610309610301826102e2565b84845461025a565b825550505050565b600090565b61031e610311565b6103298184846102ec565b505050565b5b8181101561034d57610342600082610316565b60018101905061032f565b5050565b601f8211156103925761036381610228565b61036c8461023d565b8101602085101561037b578190505b61038f6103878561023d565b83018261032e565b50505b505050565b600082821c905092915050565b60006103b560001984600802610397565b1980831691505092915050565b60006103ce83836103a4565b9150826002028217905092915050565b6103e78261018e565b67ffffffffffffffff811115610400576103ff610199565b5b61040a82546101f7565b610415828285610351565b600060209050601f8311600181146104485760008415610436578287015190505b61044085826103c2565b8655506104a8565b601f19841661045686610228565b60005b8281101561047e57848901518255600182019150602085019450602081019050610459565b8683101561049b5784890151610497601f8916826103a4565b8355505b6001600288020188555050505b505050505050565b613869806104bf6000396000f3fe608060405234801561001057600080fd5b50600436106101375760003560e01c80636352211e116100b857806398bdf6f51161007c57806398bdf6f514610362578063a22cb46514610380578063b88d4fde1461039c578063c87b56dd146103b8578063e985e9c5146103e8578063f2fde38b1461041857610137565b80636352211e146102bc57806370a08231146102ec578063715018a61461031c5780638da5cb5b1461032657806395d89b411461034457610137565b806318160ddd116100ff57806318160ddd1461020657806323b872dd146102245780632f745c591461024057806342842e0e146102705780634f6ccce71461028c57610137565b806301ffc9a71461013c57806306fdde031461016c578063081812fc1461018a578063095ea7b3146101ba578063110bcd45146101d6575b600080fd5b610156600480360381019061015191906123e3565b610434565b604051610163919061242b565b60405180910390f35b610174610446565b60405161018191906124d6565b60405180910390f35b6101a4600480360381019061019f919061252e565b6104d8565b6040516101b1919061259c565b60405180910390f35b6101d460048036038101906101cf91906125e3565b61051e565b005b6101f060048036038101906101eb9190612758565b610635565b6040516101fd91906127c3565b60405180910390f35b61020e61066d565b60405161021b91906127c3565b60405180910390f35b61023e600480360381019061023991906127de565b61067a565b005b61025a600480360381019061025591906125e3565b6106da565b60405161026791906127c3565b60405180910390f35b61028a600480360381019061028591906127de565b61077f565b005b6102a660048036038101906102a1919061252e565b61079f565b6040516102b391906127c3565b60405180910390f35b6102d660048036038101906102d1919061252e565b610810565b6040516102e3919061259c565b60405180910390f35b61030660048036038101906103019190612831565b610896565b60405161031391906127c3565b60405180910390f35b61032461094d565b005b61032e610961565b60405161033b919061259c565b60405180910390f35b61034c61098b565b60405161035991906124d6565b60405180910390f35b61036a610a1d565b60405161037791906127c3565b60405180910390f35b61039a6004803603810190610395919061288a565b610a29565b005b6103b660048036038101906103b1919061296b565b610a3f565b005b6103d260048036038101906103cd919061252e565b610aa1565b6040516103df91906124d6565b60405180910390f35b61040260048036038101906103fd91906129ee565b610ab3565b60405161040f919061242b565b60405180910390f35b610432600480360381019061042d9190612831565b610b47565b005b600061043f82610bca565b9050919050565b60606000805461045590612a5d565b80601f016020809104026020016040519081016040528092919081815260200182805461048190612a5d565b80156104ce5780601f106104a3576101008083540402835291602001916104ce565b820191906000526020600020905b8154815290600101906020018083116104b157829003601f168201915b5050505050905090565b60006104e382610c2b565b6004600083815260200190815260200160002060009054906101000a900473ffffffffffffffffffffffffffffffffffffffff169050919050565b600061052982610810565b90508073ffffffffffffffffffffffffffffffffffffffff168373ffffffffffffffffffffffffffffffffffffffff1603610599576040517f08c379a000000000000000000000000000000000000000000000000000000000815260040161059090612b00565b60405180910390fd5b8073ffffffffffffffffffffffffffffffffffffffff166105b8610c76565b73ffffffffffffffffffffffffffffffffffffffff1614806105e757506105e6816105e1610c76565b610ab3565b5b610626576040517f08c379a000000000000000000000000000000000000000000000000000000000815260040161061d90612b92565b60405180910390fd5b6106308383610c7e565b505050565b6000610641600c610d37565b600061064d600c610d4d565b90506106598482610d5b565b6106638184610d79565b8091505092915050565b6000600880549050905090565b61068b610685610c76565b82610e1d565b6106ca576040517f08c379a00000000000000000000000000000000000000000000000000000000081526004016106c190612c24565b60405180910390fd5b6106d5838383610eb2565b505050565b60006106e583610896565b8210610726576040517f08c379a000000000000000000000000000000000000000000000000000000000815260040161071d90612cb6565b60405180910390fd5b600660008473ffffffffffffffffffffffffffffffffffffffff1673ffffffffffffffffffffffffffffffffffffffff168152602001908152602001600020600083815260200190815260200160002054905092915050565b61079a83838360405180602001604052806000815250610a3f565b505050565b60006107a961066d565b82106107ea576040517f08c379a00000000000000000000000000000000000000000000000000000000081526004016107e190612d48565b60405180910390fd5b600882815481106107fe576107fd612d68565b5b90600052602060002001549050919050565b60008061081c836111ab565b9050600073ffffffffffffffffffffffffffffffffffffffff168173ffffffffffffffffffffffffffffffffffffffff160361088d576040517f08c379a000000000000000000000000000000000000000000000000000000000815260040161088490612de3565b60405180910390fd5b80915050919050565b60008073ffffffffffffffffffffffffffffffffffffffff168273ffffffffffffffffffffffffffffffffffffffff1603610906576040517f08c379a00000000000000000000000000000000000000000000000000000000081526004016108fd90612e75565b60405180910390fd5b600360008373ffffffffffffffffffffffffffffffffffffffff1673ffffffffffffffffffffffffffffffffffffffff168152602001908152602001600020549050919050565b6109556111e8565b61095f6000611266565b565b6000600b60009054906101000a900473ffffffffffffffffffffffffffffffffffffffff16905090565b60606001805461099a90612a5d565b80601f01602080910402602001604051908101604052809291908181526020018280546109c690612a5d565b8015610a135780601f106109e857610100808354040283529160200191610a13565b820191906000526020600020905b8154815290600101906020018083116109f657829003601f168201915b5050505050905090565b600c8060000154905081565b610a3b610a34610c76565b838361132c565b5050565b610a50610a4a610c76565b83610e1d565b610a8f576040517f08c379a0000000000000000000000000000000000000000000000000000000008152600401610a8690612c24565b60405180910390fd5b610a9b84848484611498565b50505050565b6060610aac826114f4565b9050919050565b6000600560008473ffffffffffffffffffffffffffffffffffffffff1673ffffffffffffffffffffffffffffffffffffffff16815260200190815260200160002060008373ffffffffffffffffffffffffffffffffffffffff1673ffffffffffffffffffffffffffffffffffffffff16815260200190815260200160002060009054906101000a900460ff16905092915050565b610b4f6111e8565b600073ffffffffffffffffffffffffffffffffffffffff168173ffffffffffffffffffffffffffffffffffffffff1603610bbe576040517f08c379a0000000000000000000000000000000000000000000000000000000008152600401610bb590612f07565b60405180910390fd5b610bc781611266565b50565b6000634906490660e01b7bffffffffffffffffffffffffffffffffffffffffffffffffffffffff1916827bffffffffffffffffffffffffffffffffffffffffffffffffffffffff19161480610c245750610c2382611606565b5b9050919050565b610c3481611680565b610c73576040517f08c379a0000000000000000000000000000000000000000000000000000000008152600401610c6a90612de3565b60405180910390fd5b50565b600033905090565b816004600083815260200190815260200160002060006101000a81548173ffffffffffffffffffffffffffffffffffffffff021916908373ffffffffffffffffffffffffffffffffffffffff160217905550808273ffffffffffffffffffffffffffffffffffffffff16610cf183610810565b73ffffffffffffffffffffffffffffffffffffffff167f8c5be1e5ebec7d5bd14f71427d1e84f3dd0314c0f7b2291e5b200ac8c7c3b92560405160405180910390a45050565b6001816000016000828254019250508190555050565b600081600001549050919050565b610d758282604051806020016040528060008152506116c1565b5050565b610d8282611680565b610dc1576040517f08c379a0000000000000000000000000000000000000000000000000000000008152600401610db890612f99565b60405180910390fd5b80600a60008481526020019081526020016000209081610de19190613165565b507ff8e1a15aba9398e019f0b49df1a4fde98ee17ae345cb5f6b5e2c27f5033e8ce782604051610e1191906127c3565b60405180910390a15050565b600080610e2983610810565b90508073ffffffffffffffffffffffffffffffffffffffff168473ffffffffffffffffffffffffffffffffffffffff161480610e6b5750610e6a8185610ab3565b5b80610ea957508373ffffffffffffffffffffffffffffffffffffffff16610e91846104d8565b73ffffffffffffffffffffffffffffffffffffffff16145b91505092915050565b8273ffffffffffffffffffffffffffffffffffffffff16610ed282610810565b73ffffffffffffffffffffffffffffffffffffffff1614610f28576040517f08c379a0000000000000000000000000000000000000000000000000000000008152600401610f1f906132a9565b60405180910390fd5b600073ffffffffffffffffffffffffffffffffffffffff168273ffffffffffffffffffffffffffffffffffffffff1603610f97576040517f08c379a0000000000000000000000000000000000000000000000000000000008152600401610f8e9061333b565b60405180910390fd5b610fa4838383600161171c565b8273ffffffffffffffffffffffffffffffffffffffff16610fc482610810565b73ffffffffffffffffffffffffffffffffffffffff161461101a576040517f08c379a0000000000000000000000000000000000000000000000000000000008152600401611011906132a9565b60405180910390fd5b6004600082815260200190815260200160002060006101000a81549073ffffffffffffffffffffffffffffffffffffffff02191690556001600360008573ffffffffffffffffffffffffffffffffffffffff1673ffffffffffffffffffffffffffffffffffffffff168152602001908152602001600020600082825403925050819055506001600360008473ffffffffffffffffffffffffffffffffffffffff1673ffffffffffffffffffffffffffffffffffffffff16815260200190815260200160002060008282540192505081905550816002600083815260200190815260200160002060006101000a81548173ffffffffffffffffffffffffffffffffffffffff021916908373ffffffffffffffffffffffffffffffffffffffff160217905550808273ffffffffffffffffffffffffffffffffffffffff168473ffffffffffffffffffffffffffffffffffffffff167fddf252ad1be2c89b69c2b068fc378daa952ba7f163c4a11628f55a4df523b3ef60405160405180910390a46111a6838383600161172e565b505050565b60006002600083815260200190815260200160002060009054906101000a900473ffffffffffffffffffffffffffffffffffffffff169050919050565b6111f0610c76565b73ffffffffffffffffffffffffffffffffffffffff1661120e610961565b73ffffffffffffffffffffffffffffffffffffffff1614611264576040517f08c379a000000000000000000000000000000000000000000000000000000000815260040161125b906133a7565b60405180910390fd5b565b6000600b60009054906101000a900473ffffffffffffffffffffffffffffffffffffffff16905081600b60006101000a81548173ffffffffffffffffffffffffffffffffffffffff021916908373ffffffffffffffffffffffffffffffffffffffff1602179055508173ffffffffffffffffffffffffffffffffffffffff168173ffffffffffffffffffffffffffffffffffffffff167f8be0079c531659141344cd1fd0a4f28419497f9722a3daafe3b4186f6b6457e060405160405180910390a35050565b8173ffffffffffffffffffffffffffffffffffffffff168373ffffffffffffffffffffffffffffffffffffffff160361139a576040517f08c379a000000000000000000000000000000000000000000000000000000000815260040161139190613413565b60405180910390fd5b80600560008573ffffffffffffffffffffffffffffffffffffffff1673ffffffffffffffffffffffffffffffffffffffff16815260200190815260200160002060008473ffffffffffffffffffffffffffffffffffffffff1673ffffffffffffffffffffffffffffffffffffffff16815260200190815260200160002060006101000a81548160ff0219169083151502179055508173ffffffffffffffffffffffffffffffffffffffff168373ffffffffffffffffffffffffffffffffffffffff167f17307eab39ab6107e8899845ad3d59bd9653f200f220920489ca2b5937696c318360405161148b919061242b565b60405180910390a3505050565b6114a3848484610eb2565b6114af84848484611734565b6114ee576040517f08c379a00000000000000000000000000000000000000000000000000000000081526004016114e5906134a5565b60405180910390fd5b50505050565b60606114ff82610c2b565b6000600a6000848152602001908152602001600020805461151f90612a5d565b80601f016020809104026020016040519081016040528092919081815260200182805461154b90612a5d565b80156115985780601f1061156d57610100808354040283529160200191611598565b820191906000526020600020905b81548152906001019060200180831161157b57829003601f168201915b5050505050905060006115a96118bb565b905060008151036115be578192505050611601565b6000825111156115f35780826040516020016115db929190613501565b60405160208183030381529060405292505050611601565b6115fc846118f8565b925050505b919050565b60007f780e9d63000000000000000000000000000000000000000000000000000000007bffffffffffffffffffffffffffffffffffffffffffffffffffffffff1916827bffffffffffffffffffffffffffffffffffffffffffffffffffffffff19161480611679575061167882611960565b5b9050919050565b60008073ffffffffffffffffffffffffffffffffffffffff166116a2836111ab565b73ffffffffffffffffffffffffffffffffffffffff1614159050919050565b6116cb8383611a42565b6116d86000848484611734565b611717576040517f08c379a000000000000000000000000000000000000000000000000000000000815260040161170e906134a5565b60405180910390fd5b505050565b61172884848484611c5f565b50505050565b50505050565b60006117558473ffffffffffffffffffffffffffffffffffffffff16611dbd565b156118ae578373ffffffffffffffffffffffffffffffffffffffff1663150b7a0261177e610c76565b8786866040518563ffffffff1660e01b81526004016117a0949392919061357a565b6020604051808303816000875af19250505080156117dc57506040513d601f19601f820116820180604052508101906117d991906135db565b60015b61185e573d806000811461180c576040519150601f19603f3d011682016040523d82523d6000602084013e611811565b606091505b506000815103611856576040517f08c379a000000000000000000000000000000000000000000000000000000000815260040161184d906134a5565b60405180910390fd5b805181602001fd5b63150b7a0260e01b7bffffffffffffffffffffffffffffffffffffffffffffffffffffffff1916817bffffffffffffffffffffffffffffffffffffffffffffffffffffffff1916149150506118b3565b600190505b949350505050565b60606040518060400160405280601581526020017f68747470733a2f2f697066732e696f2f697066732f0000000000000000000000815250905090565b606061190382610c2b565b600061190d6118bb565b9050600081511161192d5760405180602001604052806000815250611958565b8061193784611de0565b604051602001611948929190613501565b6040516020818303038152906040525b915050919050565b60007f80ac58cd000000000000000000000000000000000000000000000000000000007bffffffffffffffffffffffffffffffffffffffffffffffffffffffff1916827bffffffffffffffffffffffffffffffffffffffffffffffffffffffff19161480611a2b57507f5b5e139f000000000000000000000000000000000000000000000000000000007bffffffffffffffffffffffffffffffffffffffffffffffffffffffff1916827bffffffffffffffffffffffffffffffffffffffffffffffffffffffff1916145b80611a3b5750611a3a82611eae565b5b9050919050565b600073ffffffffffffffffffffffffffffffffffffffff168273ffffffffffffffffffffffffffffffffffffffff1603611ab1576040517f08c379a0000000000000000000000000000000000000000000000000000000008152600401611aa890613654565b60405180910390fd5b611aba81611680565b15611afa576040517f08c379a0000000000000000000000000000000000000000000000000000000008152600401611af1906136c0565b60405180910390fd5b611b0860008383600161171c565b611b1181611680565b15611b51576040517f08c379a0000000000000000000000000000000000000000000000000000000008152600401611b48906136c0565b60405180910390fd5b6001600360008473ffffffffffffffffffffffffffffffffffffffff1673ffffffffffffffffffffffffffffffffffffffff16815260200190815260200160002060008282540192505081905550816002600083815260200190815260200160002060006101000a81548173ffffffffffffffffffffffffffffffffffffffff021916908373ffffffffffffffffffffffffffffffffffffffff160217905550808273ffffffffffffffffffffffffffffffffffffffff16600073ffffffffffffffffffffffffffffffffffffffff167fddf252ad1be2c89b69c2b068fc378daa952ba7f163c4a11628f55a4df523b3ef60405160405180910390a4611c5b60008383600161172e565b5050565b611c6b84848484611f18565b6001811115611caf576040517f08c379a0000000000000000000000000000000000000000000000000000000008152600401611ca690613752565b60405180910390fd5b6000829050600073ffffffffffffffffffffffffffffffffffffffff168573ffffffffffffffffffffffffffffffffffffffff1603611cf657611cf181611f1e565b611d35565b8373ffffffffffffffffffffffffffffffffffffffff168573ffffffffffffffffffffffffffffffffffffffff1614611d3457611d338582611f67565b5b5b600073ffffffffffffffffffffffffffffffffffffffff168473ffffffffffffffffffffffffffffffffffffffff1603611d7757611d72816120d4565b611db6565b8473ffffffffffffffffffffffffffffffffffffffff168473ffffffffffffffffffffffffffffffffffffffff1614611db557611db484826121a5565b5b5b5050505050565b6000808273ffffffffffffffffffffffffffffffffffffffff163b119050919050565b606060006001611def84612224565b01905060008167ffffffffffffffff811115611e0e57611e0d61262d565b5b6040519080825280601f01601f191660200182016040528015611e405781602001600182028036833780820191505090505b509050600082602001820190505b600115611ea3578080600190039150507f3031323334353637383961626364656600000000000000000000000000000000600a86061a8153600a8581611e9757611e96613772565b5b04945060008503611e4e575b819350505050919050565b60007f01ffc9a7000000000000000000000000000000000000000000000000000000007bffffffffffffffffffffffffffffffffffffffffffffffffffffffff1916827bffffffffffffffffffffffffffffffffffffffffffffffffffffffff1916149050919050565b50505050565b6008805490506009600083815260200190815260200160002081905550600881908060018154018082558091505060019003906000526020600020016000909190919091505550565b60006001611f7484610896565b611f7e91906137d0565b9050600060076000848152602001908152602001600020549050818114612063576000600660008673ffffffffffffffffffffffffffffffffffffffff1673ffffffffffffffffffffffffffffffffffffffff168152602001908152602001600020600084815260200190815260200160002054905080600660008773ffffffffffffffffffffffffffffffffffffffff1673ffffffffffffffffffffffffffffffffffffffff168152602001908152602001600020600084815260200190815260200160002081905550816007600083815260200190815260200160002081905550505b6007600084815260200190815260200160002060009055600660008573ffffffffffffffffffffffffffffffffffffffff1673ffffffffffffffffffffffffffffffffffffffff16815260200190815260200160002060008381526020019081526020016000206000905550505050565b600060016008805490506120e891906137d0565b905060006009600084815260200190815260200160002054905060006008838154811061211857612117612d68565b5b90600052602060002001549050806008838154811061213a57612139612d68565b5b90600052602060002001819055508160096000838152602001908152602001600020819055506009600085815260200190815260200160002060009055600880548061218957612188613804565b5b6001900381819060005260206000200160009055905550505050565b60006121b083610896565b905081600660008573ffffffffffffffffffffffffffffffffffffffff1673ffffffffffffffffffffffffffffffffffffffff168152602001908152602001600020600083815260200190815260200160002081905550806007600084815260200190815260200160002081905550505050565b600080600090507a184f03e93ff9f4daa797ed6e38ed64bf6a1f0100000000000000008310612282577a184f03e93ff9f4daa797ed6e38ed64bf6a1f010000000000000000838161227857612277613772565b5b0492506040810190505b6d04ee2d6d415b85acef810000000083106122bf576d04ee2d6d415b85acef810000000083816122b5576122b4613772565b5b0492506020810190505b662386f26fc1000083106122ee57662386f26fc1000083816122e4576122e3613772565b5b0492506010810190505b6305f5e1008310612317576305f5e100838161230d5761230c613772565b5b0492506008810190505b612710831061233c57612710838161233257612331613772565b5b0492506004810190505b6064831061235f576064838161235557612354613772565b5b0492506002810190505b600a831061236e576001810190505b80915050919050565b6000604051905090565b600080fd5b600080fd5b60007fffffffff0000000000000000000000000000000000000000000000000000000082169050919050565b6123c08161238b565b81146123cb57600080fd5b50565b6000813590506123dd816123b7565b92915050565b6000602082840312156123f9576123f8612381565b5b6000612407848285016123ce565b91505092915050565b60008115159050919050565b61242581612410565b82525050565b6000602082019050612440600083018461241c565b92915050565b600081519050919050565b600082825260208201905092915050565b60005b83811015612480578082015181840152602081019050612465565b60008484015250505050565b6000601f19601f8301169050919050565b60006124a882612446565b6124b28185612451565b93506124c2818560208601612462565b6124cb8161248c565b840191505092915050565b600060208201905081810360008301526124f0818461249d565b905092915050565b6000819050919050565b61250b816124f8565b811461251657600080fd5b50565b60008135905061252881612502565b92915050565b60006020828403121561254457612543612381565b5b600061255284828501612519565b91505092915050565b600073ffffffffffffffffffffffffffffffffffffffff82169050919050565b60006125868261255b565b9050919050565b6125968161257b565b82525050565b60006020820190506125b1600083018461258d565b92915050565b6125c08161257b565b81146125cb57600080fd5b50565b6000813590506125dd816125b7565b92915050565b600080604083850312156125fa576125f9612381565b5b6000612608858286016125ce565b925050602061261985828601612519565b9150509250929050565b600080fd5b600080fd5b7f4e487b7100000000000000000000000000000000000000000000000000000000600052604160045260246000fd5b6126658261248c565b810181811067ffffffffffffffff821117156126845761268361262d565b5b80604052505050565b6000612697612377565b90506126a3828261265c565b919050565b600067ffffffffffffffff8211156126c3576126c261262d565b5b6126cc8261248c565b9050602081019050919050565b82818337600083830152505050565b60006126fb6126f6846126a8565b61268d565b90508281526020810184848401111561271757612716612628565b5b6127228482856126d9565b509392505050565b600082601f83011261273f5761273e612623565b5b813561274f8482602086016126e8565b91505092915050565b6000806040838503121561276f5761276e612381565b5b600061277d858286016125ce565b925050602083013567ffffffffffffffff81111561279e5761279d612386565b5b6127aa8582860161272a565b9150509250929050565b6127bd816124f8565b82525050565b60006020820190506127d860008301846127b4565b92915050565b6000806000606084860312156127f7576127f6612381565b5b6000612805868287016125ce565b9350506020612816868287016125ce565b925050604061282786828701612519565b9150509250925092565b60006020828403121561284757612846612381565b5b6000612855848285016125ce565b91505092915050565b61286781612410565b811461287257600080fd5b50565b6000813590506128848161285e565b92915050565b600080604083850312156128a1576128a0612381565b5b60006128af858286016125ce565b92505060206128c085828601612875565b9150509250929050565b600067ffffffffffffffff8211156128e5576128e461262d565b5b6128ee8261248c565b9050602081019050919050565b600061290e612909846128ca565b61268d565b90508281526020810184848401111561292a57612929612628565b5b6129358482856126d9565b509392505050565b600082601f83011261295257612951612623565b5b81356129628482602086016128fb565b91505092915050565b6000806000806080858703121561298557612984612381565b5b6000612993878288016125ce565b94505060206129a4878288016125ce565b93505060406129b587828801612519565b925050606085013567ffffffffffffffff8111156129d6576129d5612386565b5b6129e28782880161293d565b91505092959194509250565b60008060408385031215612a0557612a04612381565b5b6000612a13858286016125ce565b9250506020612a24858286016125ce565b9150509250929050565b7f4e487b7100000000000000000000000000000000000000000000000000000000600052602260045260246000fd5b60006002820490506001821680612a7557607f821691505b602082108103612a8857612a87612a2e565b5b50919050565b7f4552433732313a20617070726f76616c20746f2063757272656e74206f776e6560008201527f7200000000000000000000000000000000000000000000000000000000000000602082015250565b6000612aea602183612451565b9150612af582612a8e565b604082019050919050565b60006020820190508181036000830152612b1981612add565b9050919050565b7f4552433732313a20617070726f76652063616c6c6572206973206e6f7420746f60008201527f6b656e206f776e6572206f7220617070726f76656420666f7220616c6c000000602082015250565b6000612b7c603d83612451565b9150612b8782612b20565b604082019050919050565b60006020820190508181036000830152612bab81612b6f565b9050919050565b7f4552433732313a2063616c6c6572206973206e6f7420746f6b656e206f776e6560008201527f72206f7220617070726f76656400000000000000000000000000000000000000602082015250565b6000612c0e602d83612451565b9150612c1982612bb2565b604082019050919050565b60006020820190508181036000830152612c3d81612c01565b9050919050565b7f455243373231456e756d657261626c653a206f776e657220696e646578206f7560008201527f74206f6620626f756e6473000000000000000000000000000000000000000000602082015250565b6000612ca0602b83612451565b9150612cab82612c44565b604082019050919050565b60006020820190508181036000830152612ccf81612c93565b9050919050565b7f455243373231456e756d657261626c653a20676c6f62616c20696e646578206f60008201527f7574206f6620626f756e64730000000000000000000000000000000000000000602082015250565b6000612d32602c83612451565b9150612d3d82612cd6565b604082019050919050565b60006020820190508181036000830152612d6181612d25565b9050919050565b7f4e487b7100000000000000000000000000000000000000000000000000000000600052603260045260246000fd5b7f4552433732313a20696e76616c696420746f6b656e2049440000000000000000600082015250565b6000612dcd601883612451565b9150612dd882612d97565b602082019050919050565b60006020820190508181036000830152612dfc81612dc0565b9050919050565b7f4552433732313a2061646472657373207a65726f206973206e6f74206120766160008201527f6c6964206f776e65720000000000000000000000000000000000000000000000602082015250565b6000612e5f602983612451565b9150612e6a82612e03565b604082019050919050565b60006020820190508181036000830152612e8e81612e52565b9050919050565b7f4f776e61626c653a206e6577206f776e657220697320746865207a65726f206160008201527f6464726573730000000000000000000000000000000000000000000000000000602082015250565b6000612ef1602683612451565b9150612efc82612e95565b604082019050919050565b60006020820190508181036000830152612f2081612ee4565b9050919050565b7f45524337323155524953746f726167653a2055524920736574206f66206e6f6e60008201527f6578697374656e7420746f6b656e000000000000000000000000000000000000602082015250565b6000612f83602e83612451565b9150612f8e82612f27565b604082019050919050565b60006020820190508181036000830152612fb281612f76565b9050919050565b60008190508160005260206000209050919050565b60006020601f8301049050919050565b600082821b905092915050565b60006008830261301b7fffffffffffffffffffffffffffffffffffffffffffffffffffffffffffffffff82612fde565b6130258683612fde565b95508019841693508086168417925050509392505050565b6000819050919050565b600061306261305d613058846124f8565b61303d565b6124f8565b9050919050565b6000819050919050565b61307c83613047565b61309061308882613069565b848454612feb565b825550505050565b600090565b6130a5613098565b6130b0818484613073565b505050565b5b818110156130d4576130c960008261309d565b6001810190506130b6565b5050565b601f821115613119576130ea81612fb9565b6130f384612fce565b81016020851015613102578190505b61311661310e85612fce565b8301826130b5565b50505b505050565b600082821c905092915050565b600061313c6000198460080261311e565b1980831691505092915050565b6000613155838361312b565b9150826002028217905092915050565b61316e82612446565b67ffffffffffffffff8111156131875761318661262d565b5b6131918254612a5d565b61319c8282856130d8565b600060209050601f8311600181146131cf57600084156131bd578287015190505b6131c78582613149565b86555061322f565b601f1984166131dd86612fb9565b60005b82811015613205578489015182556001820191506020850194506020810190506131e0565b86831015613222578489015161321e601f89168261312b565b8355505b6001600288020188555050505b505050505050565b7f4552433732313a207472616e736665722066726f6d20696e636f72726563742060008201527f6f776e6572000000000000000000000000000000000000000000000000000000602082015250565b6000613293602583612451565b915061329e82613237565b604082019050919050565b600060208201905081810360008301526132c281613286565b9050919050565b7f4552433732313a207472616e7366657220746f20746865207a65726f2061646460008201527f7265737300000000000000000000000000000000000000000000000000000000602082015250565b6000613325602483612451565b9150613330826132c9565b604082019050919050565b6000602082019050818103600083015261335481613318565b9050919050565b7f4f776e61626c653a2063616c6c6572206973206e6f7420746865206f776e6572600082015250565b6000613391602083612451565b915061339c8261335b565b602082019050919050565b600060208201905081810360008301526133c081613384565b9050919050565b7f4552433732313a20617070726f766520746f2063616c6c657200000000000000600082015250565b60006133fd601983612451565b9150613408826133c7565b602082019050919050565b6000602082019050818103600083015261342c816133f0565b9050919050565b7f4552433732313a207472616e7366657220746f206e6f6e20455243373231526560008201527f63656976657220696d706c656d656e7465720000000000000000000000000000602082015250565b600061348f603283612451565b915061349a82613433565b604082019050919050565b600060208201905081810360008301526134be81613482565b9050919050565b600081905092915050565b60006134db82612446565b6134e581856134c5565b93506134f5818560208601612462565b80840191505092915050565b600061350d82856134d0565b915061351982846134d0565b91508190509392505050565b600081519050919050565b600082825260208201905092915050565b600061354c82613525565b6135568185613530565b9350613566818560208601612462565b61356f8161248c565b840191505092915050565b600060808201905061358f600083018761258d565b61359c602083018661258d565b6135a960408301856127b4565b81810360608301526135bb8184613541565b905095945050505050565b6000815190506135d5816123b7565b92915050565b6000602082840312156135f1576135f0612381565b5b60006135ff848285016135c6565b91505092915050565b7f4552433732313a206d696e7420746f20746865207a65726f2061646472657373600082015250565b600061363e602083612451565b915061364982613608565b602082019050919050565b6000602082019050818103600083015261366d81613631565b9050919050565b7f4552433732313a20746f6b656e20616c7265616479206d696e74656400000000600082015250565b60006136aa601c83612451565b91506136b582613674565b602082019050919050565b600060208201905081810360008301526136d98161369d565b9050919050565b7f455243373231456e756d657261626c653a20636f6e736563757469766520747260008201527f616e7366657273206e6f7420737570706f727465640000000000000000000000602082015250565b600061373c603583612451565b9150613747826136e0565b604082019050919050565b6000602082019050818103600083015261376b8161372f565b9050919050565b7f4e487b7100000000000000000000000000000000000000000000000000000000600052601260045260246000fd5b7f4e487b7100000000000000000000000000000000000000000000000000000000600052601160045260246000fd5b60006137db826124f8565b91506137e6836124f8565b92508282039050818111156137fe576137fd6137a1565b5b92915050565b7f4e487b7100000000000000000000000000000000000000000000000000000000600052603160045260246000fdfea2646970667358221220bf354a12794c47051009ad87942b876973dd0fc8363744ebd5dc832d8fb7094364736f6c634300081c0033",
  "linkReferences": {},
  "deployedLinkReferences": {}
}